{
  "contractName": "SecContract",
  "abi": [
    {
      "constant": true,
      "inputs": [
        {
          "name": "",
          "type": "uint256"
        }
      ],
      "name": "faulties",
      "outputs": [
        {
          "name": "",
          "type": "address"
        }
      ],
      "payable": false,
      "stateMutability": "view",
      "type": "function",
      "signature": "0x047d8333"
    },
    {
      "constant": true,
      "inputs": [],
      "name": "rc",
      "outputs": [
        {
          "name": "",
          "type": "uint256"
        }
      ],
      "payable": false,
      "stateMutability": "view",
      "type": "function",
      "signature": "0x12f77332"
    },
    {
      "constant": true,
      "inputs": [
        {
          "name": "",
          "type": "uint256"
        }
      ],
      "name": "selectedPs",
      "outputs": [
        {
          "name": "",
          "type": "address"
        }
      ],
      "payable": false,
      "stateMutability": "view",
      "type": "function",
      "signature": "0x159be0e8"
    },
    {
      "constant": true,
      "inputs": [
        {
          "name": "",
          "type": "uint256"
        }
      ],
      "name": "_pathEndings",
      "outputs": [
        {
          "name": "",
          "type": "uint256"
        }
      ],
      "payable": false,
      "stateMutability": "view",
      "type": "function",
      "signature": "0x19bfed2e"
    },
    {
      "constant": true,
      "inputs": [],
      "name": "ds",
      "outputs": [
        {
          "name": "",
          "type": "uint256"
        }
      ],
      "payable": false,
      "stateMutability": "view",
      "type": "function",
      "signature": "0x30dce62b"
    },
    {
      "constant": true,
      "inputs": [],
      "name": "o",
      "outputs": [
        {
          "name": "addr",
          "type": "address"
        },
        {
          "name": "account",
          "type": "uint256"
        },
        {
          "name": "hasSigned",
          "type": "bool"
        }
      ],
      "payable": false,
      "stateMutability": "view",
      "type": "function",
      "signature": "0x50cd4df2"
    },
    {
      "constant": true,
      "inputs": [],
      "name": "s",
      "outputs": [
        {
          "name": "addr",
          "type": "address"
        },
        {
          "name": "account",
          "type": "uint256"
        },
        {
          "name": "pubKey",
          "type": "bytes"
        },
        {
          "name": "hasSigned",
          "type": "bool"
        }
      ],
      "payable": false,
      "stateMutability": "view",
      "type": "function",
      "signature": "0x86b714e2"
    },
    {
      "constant": true,
      "inputs": [],
      "name": "_numPaths",
      "outputs": [
        {
          "name": "",
          "type": "uint256"
        }
      ],
      "payable": false,
      "stateMutability": "view",
      "type": "function",
      "signature": "0xa5292c9e"
    },
    {
      "constant": true,
      "inputs": [
        {
          "name": "",
          "type": "uint256"
        }
      ],
      "name": "pIndices",
      "outputs": [
        {
          "name": "",
          "type": "address"
        }
      ],
      "payable": false,
      "stateMutability": "view",
      "type": "function",
      "signature": "0xa5c53b7e"
    },
    {
      "constant": true,
      "inputs": [
        {
          "name": "",
          "type": "uint256"
        }
      ],
      "name": "terminated",
      "outputs": [
        {
          "name": "",
          "type": "bool"
        }
      ],
      "payable": false,
      "stateMutability": "view",
      "type": "function",
      "signature": "0xbb17bf6c"
    },
    {
      "constant": true,
      "inputs": [
        {
          "name": "",
          "type": "uint256"
        },
        {
          "name": "",
          "type": "uint256"
        }
      ],
      "name": "paths",
      "outputs": [
        {
          "name": "",
          "type": "address"
        }
      ],
      "payable": false,
      "stateMutability": "view",
      "type": "function",
      "signature": "0xc6c53efb"
    },
    {
      "constant": true,
      "inputs": [
        {
          "name": "",
          "type": "address"
        }
      ],
      "name": "p",
      "outputs": [
        {
          "name": "deposit",
          "type": "uint256"
        },
        {
          "name": "hasFrozenDeposit",
          "type": "bool"
        },
        {
          "name": "pubKey",
          "type": "bytes"
        },
        {
          "name": "certHash",
          "type": "bytes32"
        },
        {
          "name": "encWhisperKey",
          "type": "bytes32"
        },
        {
          "name": "startWork",
          "type": "uint256"
        },
        {
          "name": "endWork",
          "type": "uint256"
        },
        {
          "name": "remuneration",
          "type": "uint256"
        },
        {
          "name": "hasVerifiedCert",
          "type": "bool"
        },
        {
          "name": "hasPassedVerification",
          "type": "bool"
        }
      ],
      "payable": false,
      "stateMutability": "view",
      "type": "function",
      "signature": "0xd4fd9542"
    },
    {
      "constant": true,
      "inputs": [],
      "name": "alpha",
      "outputs": [
        {
          "name": "",
          "type": "uint256"
        }
      ],
      "payable": false,
      "stateMutability": "view",
      "type": "function",
      "signature": "0xdb1d0fd5"
    },
    {
      "constant": true,
      "inputs": [
        {
          "name": "",
          "type": "uint256"
        }
      ],
      "name": "_challengeHashes",
      "outputs": [
        {
          "name": "",
          "type": "bytes32"
        }
      ],
      "payable": false,
      "stateMutability": "view",
      "type": "function",
      "signature": "0xde4cca07"
    },
    {
      "constant": true,
      "inputs": [
        {
          "name": "",
          "type": "uint256"
        }
      ],
      "name": "_answerHashes",
      "outputs": [
        {
          "name": "",
          "type": "bytes32"
        }
      ],
      "payable": false,
      "stateMutability": "view",
      "type": "function",
      "signature": "0xe8cd4e45"
    },
    {
      "constant": true,
      "inputs": [],
      "name": "rs1",
      "outputs": [
        {
          "name": "",
          "type": "uint256"
        }
      ],
      "payable": false,
      "stateMutability": "view",
      "type": "function",
      "signature": "0xf11c7f3d"
    },
    {
      "inputs": [],
      "payable": false,
      "stateMutability": "nonpayable",
      "type": "constructor",
      "signature": "constructor"
    },
    {
      "constant": false,
      "inputs": [],
      "name": "kill",
      "outputs": [],
      "payable": false,
      "stateMutability": "nonpayable",
      "type": "function",
      "signature": "0x41c0e1b5"
    },
    {
      "constant": false,
      "inputs": [
        {
          "name": "pubKey",
          "type": "bytes"
        },
        {
          "name": "start",
          "type": "uint256"
        },
        {
          "name": "end",
          "type": "uint256"
        }
      ],
      "name": "newPeer",
      "outputs": [],
      "payable": true,
      "stateMutability": "payable",
      "type": "function",
      "signature": "0x1eb93fdb"
    },
    {
      "constant": false,
      "inputs": [],
      "name": "updateBalance",
      "outputs": [
        {
          "name": "",
          "type": "uint256"
        }
      ],
      "payable": true,
      "stateMutability": "payable",
      "type": "function",
      "signature": "0xa9559dd7"
    },
    {
      "constant": false,
      "inputs": [
        {
          "name": "start",
          "type": "uint256"
        },
        {
          "name": "end",
          "type": "uint256"
        }
      ],
      "name": "updateWindow",
      "outputs": [],
      "payable": false,
      "stateMutability": "nonpayable",
      "type": "function",
      "signature": "0x445f7309"
    },
    {
      "constant": false,
      "inputs": [
        {
          "name": "pubKey",
          "type": "bytes"
        }
      ],
      "name": "updatePubKey",
      "outputs": [],
      "payable": false,
      "stateMutability": "nonpayable",
      "type": "function",
      "signature": "0x96fa426a"
    },
    {
      "constant": false,
      "inputs": [
        {
          "name": "storerAddr",
          "type": "address"
        }
      ],
      "name": "ownerSign",
      "outputs": [],
      "payable": false,
      "stateMutability": "nonpayable",
      "type": "function",
      "signature": "0xee3a211f"
    },
    {
      "constant": false,
      "inputs": [
        {
          "name": "pubKey",
          "type": "bytes"
        }
      ],
      "name": "storerSign",
      "outputs": [],
      "payable": false,
      "stateMutability": "nonpayable",
      "type": "function",
      "signature": "0xf5f6972e"
    },
    {
      "constant": false,
      "inputs": [
        {
          "name": "selectedPeers",
          "type": "address[]"
        },
        {
          "name": "numPaths",
          "type": "uint256"
        },
        {
          "name": "pathEndings",
          "type": "uint256[]"
        },
        {
          "name": "remuneration",
          "type": "uint256"
        },
        {
          "name": "deposit",
          "type": "uint256"
        }
      ],
      "name": "setup",
      "outputs": [
        {
          "name": "setupIsSuccessful",
          "type": "bool"
        }
      ],
      "payable": true,
      "stateMutability": "payable",
      "type": "function",
      "signature": "0x08ea8b07"
    },
    {
      "constant": false,
      "inputs": [
        {
          "name": "certHashes",
          "type": "bytes32[]"
        },
        {
          "name": "storerCertHashes",
          "type": "bytes32[]"
        },
        {
          "name": "challengeHashes",
          "type": "bytes32[]"
        },
        {
          "name": "answerHashes",
          "type": "bytes32[]"
        },
        {
          "name": "encWhisperKeys",
          "type": "bytes32[]"
        }
      ],
      "name": "setProps",
      "outputs": [],
      "payable": false,
      "stateMutability": "nonpayable",
      "type": "function",
      "signature": "0x4d59e59e"
    },
    {
      "constant": false,
      "inputs": [
        {
          "name": "certificate",
          "type": "bytes"
        },
        {
          "name": "path",
          "type": "uint256"
        }
      ],
      "name": "verifyCert",
      "outputs": [
        {
          "name": "isVerified",
          "type": "bool"
        }
      ],
      "payable": false,
      "stateMutability": "nonpayable",
      "type": "function",
      "signature": "0x843c6d14"
    },
    {
      "constant": false,
      "inputs": [
        {
          "name": "encWhisperKey",
          "type": "bytes32"
        }
      ],
      "name": "setWhisperKey",
      "outputs": [],
      "payable": false,
      "stateMutability": "nonpayable",
      "type": "function",
      "signature": "0x42969e84"
    },
    {
      "constant": false,
      "inputs": [
        {
          "name": "path",
          "type": "uint256"
        }
      ],
      "name": "verification",
      "outputs": [
        {
          "name": "",
          "type": "bool"
        }
      ],
      "payable": false,
      "stateMutability": "nonpayable",
      "type": "function",
      "signature": "0xc05a911c"
    },
    {
      "constant": false,
      "inputs": [
        {
          "name": "answer",
          "type": "bytes"
        },
        {
          "name": "path",
          "type": "uint256"
        }
      ],
      "name": "submitAnswer",
      "outputs": [
        {
          "name": "",
          "type": "bool"
        }
      ],
      "payable": false,
      "stateMutability": "nonpayable",
      "type": "function",
      "signature": "0x981793a7"
    },
    {
      "constant": false,
      "inputs": [
        {
          "name": "path",
          "type": "uint256"
        },
        {
          "name": "challenge",
          "type": "bytes"
        }
      ],
      "name": "releaseReport",
      "outputs": [],
      "payable": false,
      "stateMutability": "nonpayable",
      "type": "function",
      "signature": "0x6511c9cc"
    },
    {
      "constant": false,
      "inputs": [
        {
          "name": "path",
          "type": "uint256"
        }
      ],
      "name": "dropReport",
      "outputs": [],
      "payable": false,
      "stateMutability": "nonpayable",
      "type": "function",
      "signature": "0x69de7d62"
    },
    {
      "constant": true,
      "inputs": [],
      "name": "getPeers",
      "outputs": [
        {
          "name": "",
          "type": "address[]"
        }
      ],
      "payable": false,
      "stateMutability": "view",
      "type": "function",
      "signature": "0xcd559561"
    },
    {
      "constant": true,
      "inputs": [],
      "name": "getSelectedPeers",
      "outputs": [
        {
          "name": "",
          "type": "address[]"
        }
      ],
      "payable": false,
      "stateMutability": "view",
      "type": "function",
      "signature": "0xb980eb64"
    }
  ],
  "bytecode": "0x6080604052600a6000556064600155600160025534801561001f57600080fd5b506155da80620000306000396000f3fe6080604052600436106101a1576000357c0100000000000000000000000000000000000000000000000000000000900463ffffffff168063047d8333146101a657806308ea8b071461022157806312f77332146103a3578063159be0e8146103ce57806319bfed2e146104495780631eb93fdb1461049857806330dce62b1461052557806341c0e1b51461055057806342969e8414610567578063445f7309146105a25780634d59e59e146105e757806350cd4df2146108fc5780636511c9cc1461096557806369de7d6214610a37578063843c6d1414610a7257806386b714e214610b5c57806396fa426a14610c31578063981793a714610cf9578063a5292c9e14610de3578063a5c53b7e14610e0e578063a9559dd714610e89578063b980eb6414610ea7578063bb17bf6c14610f13578063c05a911c14610f66578063c6c53efb14610fb9578063cd5595611461103e578063d4fd9542146110aa578063db1d0fd5146111bf578063de4cca07146111ea578063e8cd4e4514611239578063ee3a211f14611288578063f11c7f3d146112d9578063f5f6972e14611304575b600080fd5b3480156101b257600080fd5b506101df600480360360208110156101c957600080fd5b81019080803590602001909291905050506113cc565b604051808273ffffffffffffffffffffffffffffffffffffffff1673ffffffffffffffffffffffffffffffffffffffff16815260200191505060405180910390f35b610389600480360360a081101561023757600080fd5b810190808035906020019064010000000081111561025457600080fd5b82018360208201111561026657600080fd5b8035906020019184602083028401116401000000008311171561028857600080fd5b919080806020026020016040519081016040528093929190818152602001838360200280828437600081840152601f19601f82011690508083019250505050505050919291929080359060200190929190803590602001906401000000008111156102f257600080fd5b82018360208201111561030457600080fd5b8035906020019184602083028401116401000000008311171561032657600080fd5b919080806020026020016040519081016040528093929190818152602001838360200280828437600081840152601f19601f820116905080830192505050505050509192919290803590602001909291908035906020019092919050505061140a565b604051808215151515815260200191505060405180910390f35b3480156103af57600080fd5b506103b8611ae7565b6040518082815260200191505060405180910390f35b3480156103da57600080fd5b50610407600480360360208110156103f157600080fd5b8101908080359060200190929190505050611aed565b604051808273ffffffffffffffffffffffffffffffffffffffff1673ffffffffffffffffffffffffffffffffffffffff16815260200191505060405180910390f35b34801561045557600080fd5b506104826004803603602081101561046c57600080fd5b8101908080359060200190929190505050611b2b565b6040518082815260200191505060405180910390f35b610523600480360360608110156104ae57600080fd5b81019080803590602001906401000000008111156104cb57600080fd5b8201836020820111156104dd57600080fd5b803590602001918460018302840111640100000000831117156104ff57600080fd5b90919293919293908035906020019092919080359060200190929190505050611b4e565b005b34801561053157600080fd5b5061053a611dd0565b6040518082815260200191505060405180910390f35b34801561055c57600080fd5b50610565611dd6565b005b34801561057357600080fd5b506105a06004803603602081101561058a57600080fd5b8101908080359060200190929190505050611edd565b005b3480156105ae57600080fd5b506105e5600480360360408110156105c557600080fd5b81019080803590602001909291908035906020019092919050505061205f565b005b3480156105f357600080fd5b506108fa600480360360a081101561060a57600080fd5b810190808035906020019064010000000081111561062757600080fd5b82018360208201111561063957600080fd5b8035906020019184602083028401116401000000008311171561065b57600080fd5b919080806020026020016040519081016040528093929190818152602001838360200280828437600081840152601f19601f820116905080830192505050505050509192919290803590602001906401000000008111156106bb57600080fd5b8201836020820111156106cd57600080fd5b803590602001918460208302840111640100000000831117156106ef57600080fd5b919080806020026020016040519081016040528093929190818152602001838360200280828437600081840152601f19601f8201169050808301925050505050505091929192908035906020019064010000000081111561074f57600080fd5b82018360208201111561076157600080fd5b8035906020019184602083028401116401000000008311171561078357600080fd5b919080806020026020016040519081016040528093929190818152602001838360200280828437600081840152601f19601f820116905080830192505050505050509192919290803590602001906401000000008111156107e357600080fd5b8201836020820111156107f557600080fd5b8035906020019184602083028401116401000000008311171561081757600080fd5b919080806020026020016040519081016040528093929190818152602001838360200280828437600081840152601f19601f8201169050808301925050505050505091929192908035906020019064010000000081111561087757600080fd5b82018360208201111561088957600080fd5b803590602001918460208302840111640100000000831117156108ab57600080fd5b919080806020026020016040519081016040528093929190818152602001838360200280828437600081840152601f19601f8201169050808301925050505050505091929192905050506121a2565b005b34801561090857600080fd5b506109116123ad565b604051808473ffffffffffffffffffffffffffffffffffffffff1673ffffffffffffffffffffffffffffffffffffffff16815260200183815260200182151515158152602001935050505060405180910390f35b34801561097157600080fd5b50610a356004803603604081101561098857600080fd5b8101908080359060200190929190803590602001906401000000008111156109af57600080fd5b8201836020820111156109c157600080fd5b803590602001918460018302840111640100000000831117156109e357600080fd5b91908080601f016020809104026020016040519081016040528093929190818152602001838380828437600081840152601f19601f8201169050808301925050505050505091929192905050506123f2565b005b348015610a4357600080fd5b50610a7060048036036020811015610a5a57600080fd5b8101908080359060200190929190505050612aa8565b005b348015610a7e57600080fd5b50610b4260048036036040811015610a9557600080fd5b8101908080359060200190640100000000811115610ab257600080fd5b820183602082011115610ac457600080fd5b80359060200191846001830284011164010000000083111715610ae657600080fd5b91908080601f016020809104026020016040519081016040528093929190818152602001838380828437600081840152601f19601f8201169050808301925050505050505091929192908035906020019092919050505061355e565b604051808215151515815260200191505060405180910390f35b348015610b6857600080fd5b50610b71613844565b604051808573ffffffffffffffffffffffffffffffffffffffff1673ffffffffffffffffffffffffffffffffffffffff1681526020018481526020018060200183151515158152602001828103825284818151815260200191508051906020019080838360005b83811015610bf3578082015181840152602081019050610bd8565b50505050905090810190601f168015610c205780820380516001836020036101000a031916815260200191505b509550505050505060405180910390f35b348015610c3d57600080fd5b50610cf760048036036020811015610c5457600080fd5b8101908080359060200190640100000000811115610c7157600080fd5b820183602082011115610c8357600080fd5b80359060200191846001830284011164010000000083111715610ca557600080fd5b91908080601f016020809104026020016040519081016040528093929190818152602001838380828437600081840152601f19601f820116905080830192505050505050509192919290505050613927565b005b348015610d0557600080fd5b50610dc960048036036040811015610d1c57600080fd5b8101908080359060200190640100000000811115610d3957600080fd5b820183602082011115610d4b57600080fd5b80359060200191846001830284011164010000000083111715610d6d57600080fd5b91908080601f016020809104026020016040519081016040528093929190818152602001838380828437600081840152601f19601f82011690508083019250505050505050919291929080359060200190929190505050613981565b604051808215151515815260200191505060405180910390f35b348015610def57600080fd5b50610df8613ef4565b6040518082815260200191505060405180910390f35b348015610e1a57600080fd5b50610e4760048036036020811015610e3157600080fd5b8101908080359060200190929190505050613efa565b604051808273ffffffffffffffffffffffffffffffffffffffff1673ffffffffffffffffffffffffffffffffffffffff16815260200191505060405180910390f35b610e91613f38565b6040518082815260200191505060405180910390f35b348015610eb357600080fd5b50610ebc614156565b6040518080602001828103825283818151815260200191508051906020019060200280838360005b83811015610eff578082015181840152602081019050610ee4565b505050509050019250505060405180910390f35b348015610f1f57600080fd5b50610f4c60048036036020811015610f3657600080fd5b81019080803590602001909291905050506141e4565b604051808215151515815260200191505060405180910390f35b348015610f7257600080fd5b50610f9f60048036036020811015610f8957600080fd5b8101908080359060200190929190505050614217565b604051808215151515815260200191505060405180910390f35b348015610fc557600080fd5b50610ffc60048036036040811015610fdc57600080fd5b810190808035906020019092919080359060200190929190505050614870565b604051808273ffffffffffffffffffffffffffffffffffffffff1673ffffffffffffffffffffffffffffffffffffffff16815260200191505060405180910390f35b34801561104a57600080fd5b506110536148bd565b6040518080602001828103825283818151815260200191508051906020019060200280838360005b8381101561109657808201518184015260208101905061107b565b505050509050019250505060405180910390f35b3480156110b657600080fd5b506110f9600480360360208110156110cd57600080fd5b81019080803573ffffffffffffffffffffffffffffffffffffffff16906020019092919050505061494b565b604051808b81526020018a15151515815260200180602001898152602001888152602001878152602001868152602001858152602001841515151581526020018315151515815260200182810382528a818151815260200191508051906020019080838360005b8381101561117b578082015181840152602081019050611160565b50505050905090810190601f1680156111a85780820380516001836020036101000a031916815260200191505b509b50505050505050505050505060405180910390f35b3480156111cb57600080fd5b506111d4614a5e565b6040518082815260200191505060405180910390f35b3480156111f657600080fd5b506112236004803603602081101561120d57600080fd5b8101908080359060200190929190505050614a64565b6040518082815260200191505060405180910390f35b34801561124557600080fd5b506112726004803603602081101561125c57600080fd5b8101908080359060200190929190505050614a87565b6040518082815260200191505060405180910390f35b34801561129457600080fd5b506112d7600480360360208110156112ab57600080fd5b81019080803573ffffffffffffffffffffffffffffffffffffffff169060200190929190505050614aaa565b005b3480156112e557600080fd5b506112ee614bf0565b6040518082815260200191505060405180910390f35b34801561131057600080fd5b506113ca6004803603602081101561132757600080fd5b810190808035906020019064010000000081111561134457600080fd5b82018360208201111561135657600080fd5b8035906020019184600183028401116401000000008311171561137857600080fd5b91908080601f016020809104026020016040519081016040528093929190818152602001838380828437600081840152601f19601f820116905080830192505050505050509192919290505050614bf6565b005b6016818154811015156113db57fe5b906000526020600020016000915054906101000a900473ffffffffffffffffffffffffffffffffffffffff1681565b6000600460000160009054906101000a900473ffffffffffffffffffffffffffffffffffffffff1673ffffffffffffffffffffffffffffffffffffffff163373ffffffffffffffffffffffffffffffffffffffff161415156114fa576040517f08c379a00000000000000000000000000000000000000000000000000000000081526004018080602001828103825260278152602001807f4f6e6c79207468652053656e6465722063616e2063616c6c207468697320667581526020017f6e6374696f6e2e0000000000000000000000000000000000000000000000000081525060400191505060405180910390fd5b600460030160009054906101000a900460ff1680156115285750600860040160009054906101000a900460ff165b151561159c576040517f08c379a00000000000000000000000000000000000000000000000000000000081526004018080602001828103825260208152602001807f426f7468206f776e657220616e642073746f726572206d757374207369676e2e81525060200191505060405180910390fd5b8482028301341015151561163e576040517f08c379a00000000000000000000000000000000000000000000000000000000081526004018080602001828103825260348152602001807f5061796d656e7420697320696e73756666696369656e742072656c617469766581526020017f20746f20696e7075747465642076616c7565732e00000000000000000000000081525060400191505060405180910390fd5b85601190805190602001906116549291906152b0565b5084601281905550836013908051906020019061167292919061533a565b508160038190555060008090505b858110156117a557600080905060008211156116b45785600183038151811015156116a757fe5b9060200190602002015190505b60008190505b86838151811015156116c857fe5b9060200190602002015181101561179657601060008481526020019081526020016000206011828154811015156116fb57fe5b9060005260206000200160009054906101000a900473ffffffffffffffffffffffffffffffffffffffff1690806001815401808255809150509060018203906000526020600020016000909192909190916101000a81548173ffffffffffffffffffffffffffffffffffffffff021916908373ffffffffffffffffffffffffffffffffffffffff1602179055505080806001019150506116ba565b50508080600101915050611680565b5060006001905060008090505b6011805490508110156118e45783600e60006011848154811015156117d357fe5b9060005260206000200160009054906101000a900473ffffffffffffffffffffffffffffffffffffffff1673ffffffffffffffffffffffffffffffffffffffff1673ffffffffffffffffffffffffffffffffffffffff1681526020019081526020016000206000015410806118cd5750600e600060118381548110151561185657fe5b9060005260206000200160009054906101000a900473ffffffffffffffffffffffffffffffffffffffff1673ffffffffffffffffffffffffffffffffffffffff1673ffffffffffffffffffffffffffffffffffffffff16815260200190815260200160002060010160009054906101000a900460ff165b156118d757600091505b80806001019150506117b2565b506118ef8334614c8b565b15806118f9575080155b1561197457600460000160009054906101000a900473ffffffffffffffffffffffffffffffffffffffff1673ffffffffffffffffffffffffffffffffffffffff166108fc349081150290604051600060405180830381858888f19350505050158015611969573d6000803e3d6000fd5b506000915050611ade565b60008090505b86811015611a225760176000908060018154018082558091505090600182039060005260206000209060209182820401919006909192909190916101000a81548160ff0219169083151502179055505060086005016000908060018154018082558091505090600182039060005260206000209060209182820401919006909192909190916101000a81548160ff02191690831515021790555050808060010191505061197a565b5060008090505b601180549050811015611ad7576001600e6000601184815481101515611a4b57fe5b9060005260206000200160009054906101000a900473ffffffffffffffffffffffffffffffffffffffff1673ffffffffffffffffffffffffffffffffffffffff1673ffffffffffffffffffffffffffffffffffffffff16815260200190815260200160002060010160006101000a81548160ff0219169083151502179055508080600101915050611a29565b5060019150505b95945050505050565b60005481565b601181815481101515611afc57fe5b906000526020600020016000915054906101000a900473ffffffffffffffffffffffffffffffffffffffff1681565b601381815481101515611b3a57fe5b906000526020600020016000915090505481565b611b5733614ef0565b15611bca576040517f08c379a000000000000000000000000000000000000000000000000000000000815260040180806020018281038252601b8152602001807f5065657220697320616c726561647920726567697374657265642e000000000081525060200191505060405180910390fd5b6101406040519081016040528034815260200160001515815260200185858080601f016020809104026020016040519081016040528093929190818152602001838380828437600081840152601f19601f82011690508083019250505050505050815260200160006001028152602001600060010281526020018381526020018281526020016000815260200160001515815260200160001515815250600e60003373ffffffffffffffffffffffffffffffffffffffff1673ffffffffffffffffffffffffffffffffffffffff1681526020019081526020016000206000820151816000015560208201518160010160006101000a81548160ff0219169083151502179055506040820151816002019080519060200190611cec929190615387565b50606082015181600301556080820151816004015560a0820151816005015560c0820151816006015560e082015181600701556101008201518160080160006101000a81548160ff0219169083151502179055506101208201518160080160016101000a81548160ff021916908315150217905550905050600f3390806001815401808255809150509060018203906000526020600020016000909192909190916101000a81548173ffffffffffffffffffffffffffffffffffffffff021916908373ffffffffffffffffffffffffffffffffffffffff1602179055505050505050565b60035481565b600860000160009054906101000a900473ffffffffffffffffffffffffffffffffffffffff1673ffffffffffffffffffffffffffffffffffffffff163373ffffffffffffffffffffffffffffffffffffffff16141515611ec4576040517f08c379a000000000000000000000000000000000000000000000000000000000815260040180806020018281038252602a8152602001807f4f6e6c792074686520526563697069656e742063616e2063616c6c207468697381526020017f2066756e6374696f6e2e0000000000000000000000000000000000000000000081525060400191505060405180910390fd5b3373ffffffffffffffffffffffffffffffffffffffff16ff5b600080905060008090505b601180549050811015611f7857601181815481101515611f0457fe5b9060005260206000200160009054906101000a900473ffffffffffffffffffffffffffffffffffffffff1673ffffffffffffffffffffffffffffffffffffffff163373ffffffffffffffffffffffffffffffffffffffff161415611f6b5760019150611f78565b8080600101915050611ee8565b50801515612014576040517f08c379a00000000000000000000000000000000000000000000000000000000081526004018080602001828103825260228152602001807f4f6e6c792050656572732063616e2063616c6c20746869732066756e6374696f81526020017f6e2e00000000000000000000000000000000000000000000000000000000000081525060400191505060405180910390fd5b81600e60003373ffffffffffffffffffffffffffffffffffffffff1673ffffffffffffffffffffffffffffffffffffffff168152602001908152602001600020600401819055505050565b4282108061206c57504281105b806120775750818111155b15612110576040517f08c379a00000000000000000000000000000000000000000000000000000000081526004018080602001828103825260388152602001807f537461727420616e6420656e642074696d6573206d757374206265206c61746581526020017f72207468616e207468652063757272656e742074696d652e000000000000000081525060400191505060405180910390fd5b81600e60003373ffffffffffffffffffffffffffffffffffffffff1673ffffffffffffffffffffffffffffffffffffffff1681526020019081526020016000206005018190555080600e60003373ffffffffffffffffffffffffffffffffffffffff1673ffffffffffffffffffffffffffffffffffffffff168152602001908152602001600020600601819055505050565b600460000160009054906101000a900473ffffffffffffffffffffffffffffffffffffffff1673ffffffffffffffffffffffffffffffffffffffff163373ffffffffffffffffffffffffffffffffffffffff16141515612290576040517f08c379a00000000000000000000000000000000000000000000000000000000081526004018080602001828103825260278152602001807f4f6e6c79207468652053656e6465722063616e2063616c6c207468697320667581526020017f6e6374696f6e2e0000000000000000000000000000000000000000000000000081525060400191505060405180910390fd5b83600860030190805190602001906122a9929190615407565b5060008090505b855181101561235d5785818151811015156122c757fe5b90602001906020020151600e60006011848154811015156122e457fe5b9060005260206000200160009054906101000a900473ffffffffffffffffffffffffffffffffffffffff1673ffffffffffffffffffffffffffffffffffffffff1673ffffffffffffffffffffffffffffffffffffffff1681526020019081526020016000206003018190555080806001019150506122b0565b508260149080519060200190612374929190615407565b50816015908051906020019061238b929190615407565b5080600460020190805190602001906123a5929190615407565b505050505050565b60048060000160009054906101000a900473ffffffffffffffffffffffffffffffffffffffff16908060010154908060030160009054906101000a900460ff16905083565b600860000160009054906101000a900473ffffffffffffffffffffffffffffffffffffffff1673ffffffffffffffffffffffffffffffffffffffff163373ffffffffffffffffffffffffffffffffffffffff161415156124e0576040517f08c379a000000000000000000000000000000000000000000000000000000000815260040180806020018281038252602a8152602001807f4f6e6c792074686520526563697069656e742063616e2063616c6c207468697381526020017f2066756e6374696f6e2e0000000000000000000000000000000000000000000081525060400191505060405180910390fd5b6017828154811015156124ef57fe5b90600052602060002090602091828204019190069054906101000a900460ff16151515612584576040517f08c379a000000000000000000000000000000000000000000000000000000000815260040180806020018281038252601b8152602001807f5061746820697320616c7265616479207465726d696e617465642e000000000081525060200191505060405180910390fd5b42600e60006010600086815260200190815260200160002060016010600088815260200190815260200160002080549050038154811015156125c257fe5b9060005260206000200160009054906101000a900473ffffffffffffffffffffffffffffffffffffffff1673ffffffffffffffffffffffffffffffffffffffff1673ffffffffffffffffffffffffffffffffffffffff168152602001908152602001600020600601541115156126c6576040517f08c379a00000000000000000000000000000000000000000000000000000000081526004018080602001828103825260328152602001807f50726f6f66206e6f742064656c697665726564206265666f7265206368616c6c81526020017f656e67652072656c656173652074696d652e000000000000000000000000000081525060400191505060405180910390fd5b60008180519060200120905060006014848154811015156126e357fe5b9060005260206000200154821415612aa25760168190806001815401808255809150509060018203906000526020600020016000909192909190916101000a81548173ffffffffffffffffffffffffffffffffffffffff021916908373ffffffffffffffffffffffffffffffffffffffff16021790555050612882601060008681526020019081526020016000208054806020026020016040519081016040528092919081815260200182805480156127f157602002820191906000526020600020905b8160009054906101000a900473ffffffffffffffffffffffffffffffffffffffff1673ffffffffffffffffffffffffffffffffffffffff16815260200190600101908083116127a7575b5050505050601680548060200260200160405190810160405280929190818152602001828054801561287857602002820191906000526020600020905b8160009054906101000a900473ffffffffffffffffffffffffffffffffffffffff1673ffffffffffffffffffffffffffffffffffffffff168152602001906001019080831161282e575b5050505050614f93565b60006129ab6010600087815260200190815260200160002080548060200260200160405190810160405280929190818152602001828054801561291a57602002820191906000526020600020905b8160009054906101000a900473ffffffffffffffffffffffffffffffffffffffff1673ffffffffffffffffffffffffffffffffffffffff16815260200190600101908083116128d0575b505050505060168054806020026020016040519081016040528092919081815260200182805480156129a157602002820191906000526020600020905b8160009054906101000a900473ffffffffffffffffffffffffffffffffffffffff1673ffffffffffffffffffffffffffffffffffffffff1681526020019060010190808311612957575b50505050506150b8565b90503373ffffffffffffffffffffffffffffffffffffffff166108fc6003549081150290604051600060405180830381858888f193505050501580156129f5573d6000803e3d6000fd5b50600460000160009054906101000a900473ffffffffffffffffffffffffffffffffffffffff1673ffffffffffffffffffffffffffffffffffffffff166108fc82600354019081150290604051600060405180830381858888f19350505050158015612a65573d6000803e3d6000fd5b506001601786815481101515612a7757fe5b90600052602060002090602091828204019190066101000a81548160ff021916908315150217905550505b50505050565b600080905060008090505b601180549050811015612b4357601181815481101515612acf57fe5b9060005260206000200160009054906101000a900473ffffffffffffffffffffffffffffffffffffffff1673ffffffffffffffffffffffffffffffffffffffff163373ffffffffffffffffffffffffffffffffffffffff161415612b365760019150612b43565b8080600101915050612ab3565b508080612ba05750600860000160009054906101000a900473ffffffffffffffffffffffffffffffffffffffff1673ffffffffffffffffffffffffffffffffffffffff163373ffffffffffffffffffffffffffffffffffffffff16145b1515612c3a576040517f08c379a00000000000000000000000000000000000000000000000000000000081526004018080602001828103825260338152602001807f4f6e6c792074686520526563697069656e74206f722050656572732063616e2081526020017f63616c6c20746869732066756e6374696f6e2e0000000000000000000000000081525060400191505060405180910390fd5b601782815481101515612c4957fe5b90600052602060002090602091828204019190069054906101000a900460ff16151515612cde576040517f08c379a000000000000000000000000000000000000000000000000000000000815260040180806020018281038252601b8152602001807f5061746820697320616c7265616479207465726d696e617465642e000000000081525060200191505060405180910390fd5b6000600860000160009054906101000a900473ffffffffffffffffffffffffffffffffffffffff1673ffffffffffffffffffffffffffffffffffffffff163373ffffffffffffffffffffffffffffffffffffffff161415612f495742600e6000601060008781526020019081526020016000206010600088815260200190815260200160002080549050815481101515612d7457fe5b9060005260206000200160009054906101000a900473ffffffffffffffffffffffffffffffffffffffff1673ffffffffffffffffffffffffffffffffffffffff1673ffffffffffffffffffffffffffffffffffffffff16815260200190815260200160002060050154101515612e78576040517f08c379a00000000000000000000000000000000000000000000000000000000081526004018080602001828103825260328152602001807f4c617374207065657220686173206e6f74207965742066696e6973686564206981526020017f747320776f726b696e672077696e646f772e000000000000000000000000000081525060400191505060405180910390fd5b601060008481526020019081526020016000206001601060008681526020019081526020016000208054905003815481101515612eb157fe5b9060005260206000200160009054906101000a900473ffffffffffffffffffffffffffffffffffffffff16905060168190806001815401808255809150509060018203906000526020600020016000909192909190916101000a81548173ffffffffffffffffffffffffffffffffffffffff021916908373ffffffffffffffffffffffffffffffffffffffff160217905550506132d0565b42600e60003373ffffffffffffffffffffffffffffffffffffffff1673ffffffffffffffffffffffffffffffffffffffff16815260200190815260200160002060050154101515613028576040517f08c379a000000000000000000000000000000000000000000000000000000000815260040180806020018281038252602b8152602001807f496e766f6b657220686173206e6f7420737461727465642069747320776f726b81526020017f696e672077696e646f772e00000000000000000000000000000000000000000081525060400191505060405180910390fd5b60106000848152602001908152602001600020600081548110151561304957fe5b9060005260206000200160009054906101000a900473ffffffffffffffffffffffffffffffffffffffff1673ffffffffffffffffffffffffffffffffffffffff163373ffffffffffffffffffffffffffffffffffffffff161415156132145760008090505b60106000858152602001908152602001600020805490508110156131ac573373ffffffffffffffffffffffffffffffffffffffff16601060008681526020019081526020016000208281548110151561310357fe5b9060005260206000200160009054906101000a900473ffffffffffffffffffffffffffffffffffffffff1673ffffffffffffffffffffffffffffffffffffffff16141561319f57601060008581526020019081526020016000206001820381548110151561316d57fe5b9060005260206000200160009054906101000a900473ffffffffffffffffffffffffffffffffffffffff1691506131ac565b80806001019150506130ae565b5060168190806001815401808255809150509060018203906000526020600020016000909192909190916101000a81548173ffffffffffffffffffffffffffffffffffffffff021916908373ffffffffffffffffffffffffffffffffffffffff160217905550505b60163390806001815401808255809150509060018203906000526020600020016000909192909190916101000a81548173ffffffffffffffffffffffffffffffffffffffff021916908373ffffffffffffffffffffffffffffffffffffffff160217905550503373ffffffffffffffffffffffffffffffffffffffff166108fc60026003548115156132a257fe5b049081150290604051600060405180830381858888f193505050501580156132ce573d6000803e3d6000fd5b505b6133f76010600085815260200190815260200160002080548060200260200160405190810160405280929190818152602001828054801561336657602002820191906000526020600020905b8160009054906101000a900473ffffffffffffffffffffffffffffffffffffffff1673ffffffffffffffffffffffffffffffffffffffff168152602001906001019080831161331c575b505050505060168054806020026020016040519081016040528092919081815260200182805480156133ed57602002820191906000526020600020905b8160009054906101000a900473ffffffffffffffffffffffffffffffffffffffff1673ffffffffffffffffffffffffffffffffffffffff16815260200190600101908083116133a3575b5050505050614f93565b61351e6010600085815260200190815260200160002080548060200260200160405190810160405280929190818152602001828054801561348d57602002820191906000526020600020905b8160009054906101000a900473ffffffffffffffffffffffffffffffffffffffff1673ffffffffffffffffffffffffffffffffffffffff1681526020019060010190808311613443575b5050505050601680548060200260200160405190810160405280929190818152602001828054801561351457602002820191906000526020600020905b8160009054906101000a900473ffffffffffffffffffffffffffffffffffffffff1673ffffffffffffffffffffffffffffffffffffffff16815260200190600101908083116134ca575b50505050506150b8565b50600160178481548110151561353057fe5b90600052602060002090602091828204019190066101000a81548160ff021916908315150217905550505050565b6000806000905060008090505b6011805490508110156135fb5760118181548110151561358757fe5b9060005260206000200160009054906101000a900473ffffffffffffffffffffffffffffffffffffffff1673ffffffffffffffffffffffffffffffffffffffff163373ffffffffffffffffffffffffffffffffffffffff1614156135ee57600191506135fb565b808060010191505061356b565b5080806136585750600860000160009054906101000a900473ffffffffffffffffffffffffffffffffffffffff1673ffffffffffffffffffffffffffffffffffffffff163373ffffffffffffffffffffffffffffffffffffffff16145b15156136f2576040517f08c379a00000000000000000000000000000000000000000000000000000000081526004018080602001828103825260338152602001807f4f6e6c792074686520526563697069656e74206f722050656572732063616e2081526020017f63616c6c20746869732066756e6374696f6e2e0000000000000000000000000081525060400191505060405180910390fd5b60008480519060200120905080600e60003373ffffffffffffffffffffffffffffffffffffffff1673ffffffffffffffffffffffffffffffffffffffff1681526020019081526020016000206003015414156137ad576001600e60003373ffffffffffffffffffffffffffffffffffffffff1673ffffffffffffffffffffffffffffffffffffffff16815260200190815260200160002060080160006101000a81548160ff021916908315150217905550600192505061383d565b600860000160009054906101000a900473ffffffffffffffffffffffffffffffffffffffff1673ffffffffffffffffffffffffffffffffffffffff163373ffffffffffffffffffffffffffffffffffffffff1614801561382857508060086003018581548110151561381b57fe5b9060005260206000200154145b1561383757600192505061383d565b60009250505b5092915050565b60088060000160009054906101000a900473ffffffffffffffffffffffffffffffffffffffff1690806001015490806002018054600181600116156101000203166002900480601f01602080910402602001604051908101604052809291908181526020018280546001816001161561010002031660029004801561390a5780601f106138df5761010080835404028352916020019161390a565b820191906000526020600020905b8154815290600101906020018083116138ed57829003601f168201915b5050505050908060040160009054906101000a900460ff16905084565b80600e60003373ffffffffffffffffffffffffffffffffffffffff1673ffffffffffffffffffffffffffffffffffffffff168152602001908152602001600020600201908051906020019061397d929190615454565b5050565b6000600860000160009054906101000a900473ffffffffffffffffffffffffffffffffffffffff1673ffffffffffffffffffffffffffffffffffffffff163373ffffffffffffffffffffffffffffffffffffffff16141515613a71576040517f08c379a000000000000000000000000000000000000000000000000000000000815260040180806020018281038252602a8152602001807f4f6e6c792074686520526563697069656e742063616e2063616c6c207468697381526020017f2066756e6374696f6e2e0000000000000000000000000000000000000000000081525060400191505060405180910390fd5b601782815481101515613a8057fe5b90600052602060002090602091828204019190069054906101000a900460ff16151515613b15576040517f08c379a000000000000000000000000000000000000000000000000000000000815260040180806020018281038252601b8152602001807f5061746820697320616c7265616479207465726d696e617465642e000000000081525060200191505060405180910390fd5b601582815481101515613b2457fe5b906000526020600020015483805190602001201415613b7f576001600860050183815481101515613b5157fe5b90600052602060002090602091828204019190066101000a81548160ff021916908315150217905550613bbd565b6000600860050183815481101515613b9357fe5b90600052602060002090602091828204019190066101000a81548160ff0219169083151502179055505b613ce460106000848152602001908152602001600020805480602002602001604051908101604052809291908181526020018280548015613c5357602002820191906000526020600020905b8160009054906101000a900473ffffffffffffffffffffffffffffffffffffffff1673ffffffffffffffffffffffffffffffffffffffff1681526020019060010190808311613c09575b50505050506016805480602002602001604051908101604052809291908181526020018280548015613cda57602002820191906000526020600020905b8160009054906101000a900473ffffffffffffffffffffffffffffffffffffffff1673ffffffffffffffffffffffffffffffffffffffff1681526020019060010190808311613c90575b5050505050614f93565b6000613e0d60106000858152602001908152602001600020805480602002602001604051908101604052809291908181526020018280548015613d7c57602002820191906000526020600020905b8160009054906101000a900473ffffffffffffffffffffffffffffffffffffffff1673ffffffffffffffffffffffffffffffffffffffff1681526020019060010190808311613d32575b50505050506016805480602002602001604051908101604052809291908181526020018280548015613e0357602002820191906000526020600020905b8160009054906101000a900473ffffffffffffffffffffffffffffffffffffffff1673ffffffffffffffffffffffffffffffffffffffff1681526020019060010190808311613db9575b50505050506150b8565b9050600460000160009054906101000a900473ffffffffffffffffffffffffffffffffffffffff1673ffffffffffffffffffffffffffffffffffffffff166108fc60035483019081150290604051600060405180830381858888f19350505050158015613e7e573d6000803e3d6000fd5b506001601784815481101515613e9057fe5b90600052602060002090602091828204019190066101000a81548160ff021916908315150217905550600860050183815481101515613ecb57fe5b90600052602060002090602091828204019190069054906101000a900460ff1691505092915050565b60125481565b600f81815481101515613f0957fe5b906000526020600020016000915054906101000a900473ffffffffffffffffffffffffffffffffffffffff1681565b6000600e60003373ffffffffffffffffffffffffffffffffffffffff1673ffffffffffffffffffffffffffffffffffffffff16815260200190815260200160002060010160009054906101000a900460ff1615614023576040517f08c379a00000000000000000000000000000000000000000000000000000000081526004018080602001828103825260288152602001807f506565722069732070617274616b696e6720696e20616e206f6e676f696e672081526020017f70726f636573732e00000000000000000000000000000000000000000000000081525060400191505060405180910390fd5b6000341415614102573373ffffffffffffffffffffffffffffffffffffffff166108fc600e60003373ffffffffffffffffffffffffffffffffffffffff1673ffffffffffffffffffffffffffffffffffffffff168152602001908152602001600020600001549081150290604051600060405180830381858888f193505050501580156140b4573d6000803e3d6000fd5b506000600e60003373ffffffffffffffffffffffffffffffffffffffff1673ffffffffffffffffffffffffffffffffffffffff16815260200190815260200160002060000181905550614153565b34600e60003373ffffffffffffffffffffffffffffffffffffffff1673ffffffffffffffffffffffffffffffffffffffff168152602001908152602001600020600001600082825401925050819055505b90565b606060118054806020026020016040519081016040528092919081815260200182805480156141da57602002820191906000526020600020905b8160009054906101000a900473ffffffffffffffffffffffffffffffffffffffff1673ffffffffffffffffffffffffffffffffffffffff1681526020019060010190808311614190575b5050505050905090565b6017818154811015156141f357fe5b9060005260206000209060209182820401919006915054906101000a900460ff1681565b6000806000905060008090505b6011805490508110156142b45760118181548110151561424057fe5b9060005260206000200160009054906101000a900473ffffffffffffffffffffffffffffffffffffffff1673ffffffffffffffffffffffffffffffffffffffff163373ffffffffffffffffffffffffffffffffffffffff1614156142a757600191506142b4565b8080600101915050614224565b50801515614350576040517f08c379a00000000000000000000000000000000000000000000000000000000081526004018080602001828103825260228152602001807f4f6e6c792050656572732063616e2063616c6c20746869732066756e6374696f81526020017f6e2e00000000000000000000000000000000000000000000000000000000000081525060400191505060405180910390fd5b60178381548110151561435f57fe5b90600052602060002090602091828204019190069054906101000a900460ff161515156143f4576040517f08c379a000000000000000000000000000000000000000000000000000000000815260040180806020018281038252601b8152602001807f5061746820697320616c7265616479207465726d696e617465642e000000000081525060200191505060405180910390fd5b600e60003373ffffffffffffffffffffffffffffffffffffffff1673ffffffffffffffffffffffffffffffffffffffff16815260200190815260200160002060080160009054906101000a900460ff16801561449657506000600102600e60003373ffffffffffffffffffffffffffffffffffffffff1673ffffffffffffffffffffffffffffffffffffffff1681526020019081526020016000206004015414155b156144ff576001600e60003373ffffffffffffffffffffffffffffffffffffffff1673ffffffffffffffffffffffffffffffffffffffff16815260200190815260200160002060080160016101000a81548160ff0219169083151502179055506001915061486a565b60163390806001815401808255809150509060018203906000526020600020016000909192909190916101000a81548173ffffffffffffffffffffffffffffffffffffffff021916908373ffffffffffffffffffffffffffffffffffffffff1602179055505061468c601060008581526020019081526020016000208054806020026020016040519081016040528092919081815260200182805480156145fb57602002820191906000526020600020905b8160009054906101000a900473ffffffffffffffffffffffffffffffffffffffff1673ffffffffffffffffffffffffffffffffffffffff16815260200190600101908083116145b1575b5050505050601680548060200260200160405190810160405280929190818152602001828054801561468257602002820191906000526020600020905b8160009054906101000a900473ffffffffffffffffffffffffffffffffffffffff1673ffffffffffffffffffffffffffffffffffffffff1681526020019060010190808311614638575b5050505050614f93565b60006147b56010600086815260200190815260200160002080548060200260200160405190810160405280929190818152602001828054801561472457602002820191906000526020600020905b8160009054906101000a900473ffffffffffffffffffffffffffffffffffffffff1673ffffffffffffffffffffffffffffffffffffffff16815260200190600101908083116146da575b505050505060168054806020026020016040519081016040528092919081815260200182805480156147ab57602002820191906000526020600020905b8160009054906101000a900473ffffffffffffffffffffffffffffffffffffffff1673ffffffffffffffffffffffffffffffffffffffff1681526020019060010190808311614761575b50505050506150b8565b9050600460000160009054906101000a900473ffffffffffffffffffffffffffffffffffffffff1673ffffffffffffffffffffffffffffffffffffffff166108fc60035460020283019081150290604051600060405180830381858888f19350505050158015614829573d6000803e3d6000fd5b50600160178581548110151561483b57fe5b90600052602060002090602091828204019190066101000a81548160ff02191690831515021790555060009250505b50919050565b60106020528160005260406000208181548110151561488b57fe5b906000526020600020016000915091509054906101000a900473ffffffffffffffffffffffffffffffffffffffff1681565b6060600f80548060200260200160405190810160405280929190818152602001828054801561494157602002820191906000526020600020905b8160009054906101000a900473ffffffffffffffffffffffffffffffffffffffff1673ffffffffffffffffffffffffffffffffffffffff16815260200190600101908083116148f7575b5050505050905090565b600e6020528060005260406000206000915090508060000154908060010160009054906101000a900460ff1690806002018054600181600116156101000203166002900480601f016020809104026020016040519081016040528092919081815260200182805460018160011615610100020316600290048015614a105780601f106149e557610100808354040283529160200191614a10565b820191906000526020600020905b8154815290600101906020018083116149f357829003601f168201915b5050505050908060030154908060040154908060050154908060060154908060070154908060080160009054906101000a900460ff16908060080160019054906101000a900460ff1690508a565b60025481565b601481815481101515614a7357fe5b906000526020600020016000915090505481565b601581815481101515614a9657fe5b906000526020600020016000915090505481565b6080604051908101604052803373ffffffffffffffffffffffffffffffffffffffff168152602001600081526020016000604051908082528060200260200182016040528015614b095781602001602082028038833980820191505090505b50815260200160011515815250600460008201518160000160006101000a81548173ffffffffffffffffffffffffffffffffffffffff021916908373ffffffffffffffffffffffffffffffffffffffff160217905550602082015181600101556040820151816002019080519060200190614b859291906154d4565b5060608201518160030160006101000a81548160ff02191690831515021790555090505080600860000160006101000a81548173ffffffffffffffffffffffffffffffffffffffff021916908373ffffffffffffffffffffffffffffffffffffffff16021790555050565b60015481565b600860000160009054906101000a900473ffffffffffffffffffffffffffffffffffffffff1673ffffffffffffffffffffffffffffffffffffffff163373ffffffffffffffffffffffffffffffffffffffff161415614c88578060086002019080519060200190614c68929190615454565b506001600860040160006101000a81548160ff0219169083151502179055505b50565b6000806000905060008090505b601254811015614eca5760008090505b6010600083815260200190815260200160002080549050811015614ebc576000610e10600e60006010600087815260200190815260200160002085815481101515614cef57fe5b9060005260206000200160009054906101000a900473ffffffffffffffffffffffffffffffffffffffff1673ffffffffffffffffffffffffffffffffffffffff1673ffffffffffffffffffffffffffffffffffffffff16815260200190815260200160002060050154600e60006010600088815260200190815260200160002086815481101515614d7c57fe5b9060005260206000200160009054906101000a900473ffffffffffffffffffffffffffffffffffffffff1673ffffffffffffffffffffffffffffffffffffffff1673ffffffffffffffffffffffffffffffffffffffff1681526020019081526020016000206006015403811515614def57fe5b049050600060026001830360025402600154600202018302811515614e1057fe5b0460005401905080600e60006010600088815260200190815260200160002086815481101515614e3c57fe5b9060005260206000200160009054906101000a900473ffffffffffffffffffffffffffffffffffffffff1673ffffffffffffffffffffffffffffffffffffffff1673ffffffffffffffffffffffffffffffffffffffff16815260200190815260200160002060070181905550808501945050508080600101915050614ca8565b508080600101915050614c98565b508360125402810183101515614ee4576001915050614eea565b60009150505b92915050565b6000806000905060008090505b600f80549050811015614f89578373ffffffffffffffffffffffffffffffffffffffff16600f82815481101515614f3057fe5b9060005260206000200160009054906101000a900473ffffffffffffffffffffffffffffffffffffffff1673ffffffffffffffffffffffffffffffffffffffff161415614f7c57600191505b8080600101915050614efd565b5080915050919050565b60008090505b82518110156150b357600080905060008090505b835181101561502a578381815181101515614fc457fe5b9060200190602002015173ffffffffffffffffffffffffffffffffffffffff168584815181101515614ff257fe5b9060200190602002015173ffffffffffffffffffffffffffffffffffffffff16141561501d57600191505b8080600101915050614fad565b508015156150a5576000600e6000868581518110151561504657fe5b9060200190602002015173ffffffffffffffffffffffffffffffffffffffff1673ffffffffffffffffffffffffffffffffffffffff16815260200190815260200160002060010160006101000a81548160ff0219169083151502179055505b508080600101915050614f99565b505050565b600080600090505b835181101561522557600080905060008090505b84518110156151515784818151811015156150eb57fe5b9060200190602002015173ffffffffffffffffffffffffffffffffffffffff16868481518110151561511957fe5b9060200190602002015173ffffffffffffffffffffffffffffffffffffffff16141561514457600191505b80806001019150506150d4565b50801515615217576000858381518110151561516957fe5b9060200190602002015190508073ffffffffffffffffffffffffffffffffffffffff166108fc600e600089878151811015156151a157fe5b9060200190602002015173ffffffffffffffffffffffffffffffffffffffff1673ffffffffffffffffffffffffffffffffffffffff168152602001908152602001600020600701549081150290604051600060405180830381858888f19350505050158015615214573d6000803e3d6000fd5b50505b5080806001019150506150c0565b50600080905060008090505b83518110156152a557600e6000858381518110151561524c57fe5b9060200190602002015173ffffffffffffffffffffffffffffffffffffffff1673ffffffffffffffffffffffffffffffffffffffff16815260200190815260200160002060070154820191508080600101915050615231565b508091505092915050565b828054828255906000526020600020908101928215615329579160200282015b828111156153285782518260006101000a81548173ffffffffffffffffffffffffffffffffffffffff021916908373ffffffffffffffffffffffffffffffffffffffff160217905550916020019190600101906152d0565b5b5090506153369190615521565b5090565b828054828255906000526020600020908101928215615376579160200282015b8281111561537557825182559160200191906001019061535a565b5b5090506153839190615564565b5090565b828054600181600116156101000203166002900490600052602060002090601f016020900481019282601f106153c857805160ff19168380011785556153f6565b828001600101855582156153f6579182015b828111156153f55782518255916020019190600101906153da565b5b5090506154039190615564565b5090565b828054828255906000526020600020908101928215615443579160200282015b82811115615442578251825591602001919060010190615427565b5b5090506154509190615589565b5090565b828054600181600116156101000203166002900490600052602060002090601f016020900481019282601f1061549557805160ff19168380011785556154c3565b828001600101855582156154c3579182015b828111156154c25782518255916020019190600101906154a7565b5b5090506154d09190615564565b5090565b828054828255906000526020600020908101928215615510579160200282015b8281111561550f5782518255916020019190600101906154f4565b5b50905061551d9190615589565b5090565b61556191905b8082111561555d57600081816101000a81549073ffffffffffffffffffffffffffffffffffffffff021916905550600101615527565b5090565b90565b61558691905b8082111561558257600081600090555060010161556a565b5090565b90565b6155ab91905b808211156155a757600081600090555060010161558f565b5090565b9056fea165627a7a72305820f93f3c1319aca5a5edb302fc807fa50cb326b3aa086b59a0cbe70bb0861eff940029",
  "source": "pragma solidity >=0.4.25 <0.6.0;\n//pragma experimental ABIEncoderV2;\n\ncontract SecContract {\n    struct Owner {\n        address payable addr;\n        uint account;\n        bytes32[] encWhisperKeys;\n        bool hasSigned;\n    }\n\n    struct Storer {\n        address addr;\n        uint account;\n        bytes pubKey;\n        bytes32[] certHashes;\n        bool hasSigned;\n        bool[] correctlyAnswered;\n    }\n\n    struct Peer {\n        uint deposit;\n        bool hasFrozenDeposit;\n        bytes pubKey;\n        bytes32 certHash;\n        bytes32 encWhisperKey;\n        uint startWork;\n        uint endWork;\n        uint remuneration;\n        bool hasVerifiedCert;\n        bool hasPassedVerification;\n    }\n\n    uint public rc = 10;\n    uint public rs1 = 100;\n    uint public alpha = 1;\n    uint public ds;\n\n    Owner public o;  // Sender\n    Storer public s;  // Receiver\n\n    mapping (address => Peer) public p; // Peers\n    address[] public pIndices;\n    mapping (uint => address[]) public paths;\n    address[] public selectedPs;\n    uint public _numPaths;\n    uint[] public _pathEndings;\n    bytes32[] public _challengeHashes;\n    bytes32[] public _answerHashes;\n    address[] public faulties;\n    bool[] public terminated;\n\n    modifier onlyO {\n        require(\n            msg.sender == o.addr,\n            \"Only the Sender can call this function.\"\n        );\n        _;\n    }\n\n    modifier onlyS {\n        require(\n            msg.sender == s.addr,\n            \"Only the Recipient can call this function.\"\n        );\n        _;\n    }\n\n    modifier onlyP {\n        bool isSelectedP = false;\n        for (uint i = 0; i < selectedPs.length; i++) {\n            if (msg.sender == selectedPs[i]) {\n                isSelectedP = true;\n                break;\n            }\n        }\n        require(\n            isSelectedP,\n            \"Only Peers can call this function.\"\n        );\n        _;\n    }\n\n    modifier onlyPS {\n        bool isSelectedP = false;\n        for (uint i = 0; i < selectedPs.length; i++) {\n            if (msg.sender == selectedPs[i]) {\n                isSelectedP = true;\n                break;\n            }\n        }\n        require(\n            isSelectedP || msg.sender == s.addr,\n            \"Only the Recipient or Peers can call this function.\"\n        );\n        _;\n    }\n\n    constructor() public {\n       return;\n    }\n\n    // Function to recover the funds on the contract\n    function kill() public onlyS {\n        selfdestruct(msg.sender);\n    }\n\n    // Register component\n    function newPeer(bytes calldata pubKey, uint start, uint end) external payable {\n        if (peerExists(msg.sender))\n            revert(\"Peer is already registered.\");\n        p[msg.sender] = Peer(msg.value, false, pubKey, bytes32(0), bytes32(0), start, end, 0, false, false);\n        pIndices.push(msg.sender);\n    }\n\n    function updateBalance() external payable returns (uint) {\n        if (p[msg.sender].hasFrozenDeposit) {\n            revert(\"Peer is partaking in an ongoing process.\");\n        } else if (msg.value == 0) {\n            msg.sender.transfer(p[msg.sender].deposit);\n            p[msg.sender].deposit = 0;\n        } else {\n            p[msg.sender].deposit += msg.value;\n        }\n    }\n\n    function updateWindow(uint start, uint end) public {\n        if (start < now || end < now || end <= start)\n            revert(\"Start and end times must be later than the current time.\");\n        //if (p[msg.sender].hasFrozenDeposit)\n        //    revert(\"Peer is partaking in an ongoing process.\");\n        p[msg.sender].startWork = start;\n        p[msg.sender].endWork = end;\n    }\n\n    function updatePubKey(bytes memory pubKey) public {\n        p[msg.sender].pubKey = pubKey;\n    }\n\n\n    // Setup component\n    function ownerSign(address storerAddr) public {\n        // Sender should sign the contract.\n        o = Owner(msg.sender, 0, new bytes32[](0), true);\n        s.addr = storerAddr;\n    }\n\n    function storerSign(bytes memory pubKey) public {\n        if (msg.sender == s.addr) {\n            s.pubKey = pubKey;\n            s.hasSigned = true;\n        }\n    }\n\n    /** @dev Lets owner set up the system.\n      * @param selectedPeers Selected peers in all paths.\n      * @param numPaths Number of paths.\n      * @param pathEndings For all paths, which index in selectedPeers that is the last peer for that path. E.g. If 3 then 2 is the last peer in the path.\n      * @param remuneration Total remuneration to the peers in all paths.\n      * @param deposit The required deposit amount that is required of the selected peers.\n      * @return bool Setup success.\n      */\n    function setup(\n        address[] memory selectedPeers,\n        uint numPaths,\n        uint[] memory pathEndings,\n        uint remuneration,\n        uint deposit) public payable onlyO returns (bool setupIsSuccessful) {\n        require(o.hasSigned && s.hasSigned, \"Both owner and storer must sign.\");\n        require(msg.value >= remuneration+(deposit*numPaths), \"Payment is insufficient relative to inputted values.\");\n        selectedPs = selectedPeers;\n        _numPaths = numPaths;\n        _pathEndings = pathEndings;\n        ds = deposit;\n        for (uint i = 0; i < numPaths; i++) {\n            uint start = 0;\n            if (i > 0) start = pathEndings[i-1];\n            for (uint j = start; j < pathEndings[i]; j++) {\n                paths[i].push(selectedPs[j]);\n            }\n        }\n        bool selectedPMeetRequirements = true;\n        for (uint i = 0; i < selectedPs.length; i++) {\n            if (p[selectedPs[i]].deposit < deposit || p[selectedPs[i]].hasFrozenDeposit) {\n                selectedPMeetRequirements = false;\n            }\n        }\n\n        // Check if owner has sufficient account balance and that selected peers meet the requirements\n        if (!isOwnerPaymentSufficient(deposit, msg.value) || !selectedPMeetRequirements) {\n            // reject setup\n            o.addr.transfer(msg.value);\n            return false;\n        }\n\n        // Mark all paths as not terminated.\n        for (uint i = 0; i < numPaths; i++) {\n            terminated.push(false);\n            s.correctlyAnswered.push(false);\n        }\n\n        // Freeze deposits of peers, and approve setup\n        for (uint i = 0; i < selectedPs.length; i++) {\n            p[selectedPs[i]].hasFrozenDeposit = true;\n        }\n        return true;\n    }\n\n\n    // Enforce component\n    /** @dev Lets owner submit necessary data\n      * @param certHashes Hashes of the certificates of the peers in the same order of selectedPs.\n      * @param storerCertHashes Hashes of the certificates of data storer.\n      * @param challengeHashes Hashes of the challenges in each path (only encrypted by the recipients public key)\n      * @param answerHashes Hashes of the answers to the challenges in each path. For verification of storer's answer.\n      * @param encWhisperKeys Whisper keys of Owner for each path. Encrypted by the public key of each subsequent peer.\n      */\n    function setProps(\n       bytes32[] memory certHashes,\n       bytes32[] memory storerCertHashes,\n       bytes32[] memory challengeHashes,\n       bytes32[] memory answerHashes,\n       bytes32[] memory encWhisperKeys) public onlyO {\n        s.certHashes = storerCertHashes;\n        for (uint i = 0; i < certHashes.length; i++) {\n            p[selectedPs[i]].certHash = certHashes[i];\n        }\n\n        _challengeHashes = challengeHashes;\n        _answerHashes = answerHashes;\n        o.encWhisperKeys = encWhisperKeys;\n        return;\n    }\n\n    function verifyCert(bytes memory certificate, uint path) public onlyPS returns (bool isVerified){\n        bytes32 certHash = keccak256(certificate);\n\n        if (p[msg.sender].certHash == certHash) {\n            p[msg.sender].hasVerifiedCert = true;\n            return true;\n        } else if (msg.sender == s.addr && s.certHashes[path] == certHash) {\n            return true;\n        }\n        return false;\n    }\n\n    function setWhisperKey(bytes32 encWhisperKey) public onlyP {\n        p[msg.sender].encWhisperKey = encWhisperKey;\n    }\n\n    function verification(uint path) public onlyP returns (bool) {  // Invoked by Ps and s to do verification\n        require(!terminated[path], \"Path is already terminated.\");\n        if (p[msg.sender].hasVerifiedCert && p[msg.sender].encWhisperKey != bytes32(0)) {\n            p[msg.sender].hasPassedVerification = true;\n            return true;\n        }\n\n        faulties.push(msg.sender);\n        unfreezeDeposits(paths[path], faulties);\n        uint remain = remunerationPayout(paths[path], faulties);\n        o.addr.transfer(remain + 2*ds);\n        terminated[path] = true;\n        return false;\n    }\n\n    function submitAnswer(bytes memory answer, uint path) public onlyS returns (bool) {\n        require(!terminated[path], \"Path is already terminated.\");\n        if (keccak256(answer) == _answerHashes[path]) {\n            s.correctlyAnswered[path] = true;\n        } else {\n            s.correctlyAnswered[path] = false;\n        }\n        unfreezeDeposits(paths[path], faulties);\n        uint remain = remunerationPayout(paths[path], faulties);\n        o.addr.transfer(remain + ds);\n        terminated[path] = true;\n        return s.correctlyAnswered[path];\n    }\n\n\n    // Report component\n    function releaseReport(uint path, bytes memory challenge) public onlyS {\n        require(!terminated[path], \"Path is already terminated.\");\n        require(p[paths[path][paths[path].length - 1]].endWork > now, \"Proof not delivered before challenge release time.\");\n        bytes32 challengeHash = keccak256(challenge);\n        address faultyPeer;\n        if (challengeHash == _challengeHashes[path]) {\n            faulties.push(faultyPeer);\n            unfreezeDeposits(paths[path], faulties);\n            uint remain = remunerationPayout(paths[path], faulties);\n            msg.sender.transfer(ds);\n            o.addr.transfer(ds + remain);\n            terminated[path] = true;\n        }\n    }\n\n    function dropReport(uint path) public onlyPS {\n        require(!terminated[path], \"Path is already terminated.\");\n        address faultyPeer;\n        if (msg.sender == s.addr) {\n            require(p[paths[path][paths[path].length]].startWork < now, \"Last peer has not yet finished its working window.\");\n            faultyPeer = paths[path][paths[path].length - 1];\n            faulties.push(faultyPeer);\n        } else {\n            require(p[msg.sender].startWork < now, \"Invoker has not started its working window.\");\n            if (msg.sender != paths[path][0]) {\n                for (uint i = 0; i < paths[path].length; i++) {\n                    if (paths[path][i] == msg.sender) {\n                        faultyPeer = paths[path][i-1];\n                        break;\n                    }\n                }\n                faulties.push(faultyPeer);\n            }\n            faulties.push(msg.sender);\n            msg.sender.transfer(ds/2);\n        }\n        unfreezeDeposits(paths[path], faulties);\n        remunerationPayout(paths[path], faulties);\n        terminated[path] = true;\n    }\n\n    // Getters\n    function getPeers() public view returns (address[] memory) {\n        /** NOTE: from Solidity docs, Solidity in Depth->Contracts->Get Functions:\n        * \"If you have a public state variable of array type, then you can only\n        * retrieve single elements of the array via the generated getter function.\n        * This mechanism exists to avoid high gas costs when returning an entire\n        * array. You can use arguments to specify which individual element to return,\n        * for example data(0). If you want to return an entire array in one call, then\n        * you need to write a function.\"\n        */\n        return pIndices;\n    }\n\n    function getSelectedPeers() public view returns (address[] memory) {\n        return selectedPs;\n    }\n\n    // Helper functions\n    function peerExists(address addr) private view returns (bool) {\n        bool exists = false;\n        for (uint i = 0; i < pIndices.length; i++) {\n            if (pIndices[i] == addr) {\n                exists = true;\n            }\n        }\n        return exists;\n    }\n\n    /** @dev Calculates and sets remuneration for every peer in each path and checks if totPayment by owner is correct.\n      * @param deposit The deposit required by participants.\n      * @param totPayment Total payment of data owner for setup of service.\n      */\n    function isOwnerPaymentSufficient(uint deposit, uint totPayment) private returns (bool) {\n        uint calculatedTotRem = 0;\n        for (uint i = 0; i < _numPaths; i++) {\n            for (uint j = 0; j < paths[i].length; j++) {\n                uint workingWindow = (p[paths[i][j]].endWork - p[paths[i][j]].startWork)/3600;\n                uint r = rc + workingWindow*(2*rs1 + alpha*(workingWindow - 1))/2;\n                p[paths[i][j]].remuneration = r;\n                calculatedTotRem += r;\n            }\n        }\n        if (totPayment >= calculatedTotRem + _numPaths*deposit) {\n            return true;\n        }\n        return false;\n    }\n\n    function unfreezeDeposits(address[] memory path, address[] memory except) private {\n        for (uint i = 0; i < path.length; i++) {\n            bool isException = false;\n            for (uint j = 0; j < except.length; j++) {\n                if (path[i] == except[j]) isException = true;\n            }\n            if (!isException) {\n                p[path[i]].hasFrozenDeposit = false;\n            }\n        }\n    }\n\n    function remunerationPayout(address[] memory path, address[] memory except) private returns (uint) {\n        for (uint i = 0; i < path.length; i++) {\n            bool isException = false;\n            for (uint j = 0; j < except.length; j++) {\n                if (path[i] == except[j]) isException = true;\n            }\n            if (!isException) {\n                address payable payableAddr = address(uint160(path[i]));\n                payableAddr.transfer(p[path[i]].remuneration);\n            }\n        }\n        uint remain = 0;\n        for (uint i = 0; i < except.length; i++) {\n            remain += p[except[i]].remuneration;\n        }\n        return remain;\n    }\n}",
  "sourcePath": "/Users/Daniel/dev/go/src/github.com/sec/Sec/contracts/SecContract.sol",
  "compiler": {
    "name": "solc",
    "version": "0.5.0+commit.1d4f565a.Emscripten.clang"
  },
  "schemaVersion": "3.0.1",
  "updatedAt": "2019-06-13T18:24:49.852Z",
  "devdoc": {
    "methods": {
      "setProps(bytes32[],bytes32[],bytes32[],bytes32[],bytes32[])": {
        "details": "Lets owner submit necessary data",
        "params": {
          "answerHashes": "Hashes of the answers to the challenges in each path. For verification of storer's answer.",
          "certHashes": "Hashes of the certificates of the peers in the same order of selectedPs.",
          "challengeHashes": "Hashes of the challenges in each path (only encrypted by the recipients public key)",
          "encWhisperKeys": "Whisper keys of Owner for each path. Encrypted by the public key of each subsequent peer.",
          "storerCertHashes": "Hashes of the certificates of data storer."
        }
      },
      "setup(address[],uint256,uint256[],uint256,uint256)": {
        "details": "Lets owner set up the system.",
        "params": {
          "deposit": "The required deposit amount that is required of the selected peers.",
          "numPaths": "Number of paths.",
          "pathEndings": "For all paths, which index in selectedPeers that is the last peer for that path. E.g. If 3 then 2 is the last peer in the path.",
          "remuneration": "Total remuneration to the peers in all paths.",
          "selectedPeers": "Selected peers in all paths."
        },
        "return": "bool Setup success."
      }
    }
  },
  "userdoc": {
    "methods": {}
  }
}